{
  "_format": "hh-sol-artifact-1",
  "contractName": "AgreementNFTDealClient",
  "sourceName": "contracts/fil-deal-clients/AgreementNFTDealClient.sol",
  "abi": [
    {
      "inputs": [
        {
          "internalType": "address",
          "name": "_nftAddress",
          "type": "address"
        },
        {
          "internalType": "string",
          "name": "_clientTokenURI",
          "type": "string"
        },
        {
          "internalType": "string",
          "name": "_providerTokenURI",
          "type": "string"
        }
      ],
      "stateMutability": "nonpayable",
      "type": "constructor"
    },
    {
      "inputs": [],
      "name": "AUTHORIZE_MESSAGE_METHOD_NUM",
      "outputs": [
        {
          "internalType": "uint64",
          "name": "",
          "type": "uint64"
        }
      ],
      "stateMutability": "view",
      "type": "function"
    },
    {
      "inputs": [],
      "name": "clientTokenURI",
      "outputs": [
        {
          "internalType": "string",
          "name": "",
          "type": "string"
        }
      ],
      "stateMutability": "view",
      "type": "function"
    },
    {
      "inputs": [
        {
          "internalType": "uint64",
          "name": "",
          "type": "uint64"
        },
        {
          "internalType": "uint64",
          "name": "method",
          "type": "uint64"
        },
        {
          "internalType": "bytes",
          "name": "params",
          "type": "bytes"
        }
      ],
      "name": "handle_filecoin_method",
      "outputs": [],
      "stateMutability": "nonpayable",
      "type": "function"
    },
    {
      "inputs": [],
      "name": "nftAddress",
      "outputs": [
        {
          "internalType": "address",
          "name": "",
          "type": "address"
        }
      ],
      "stateMutability": "view",
      "type": "function"
    },
    {
      "inputs": [],
      "name": "providerTokenURI",
      "outputs": [
        {
          "internalType": "string",
          "name": "",
          "type": "string"
        }
      ],
      "stateMutability": "view",
      "type": "function"
    }
  ],
  "bytecode": "0x60806040523480156200001157600080fd5b50604051620020de380380620020de8339818101604052810190620000379190620002a0565b8280806000806101000a81548173ffffffffffffffffffffffffffffffffffffffff021916908373ffffffffffffffffffffffffffffffffffffffff160217905550505081600190816200008c919062000585565b5080600290816200009e919062000585565b505050506200066c565b6000604051905090565b600080fd5b600080fd5b600073ffffffffffffffffffffffffffffffffffffffff82169050919050565b6000620000e982620000bc565b9050919050565b620000fb81620000dc565b81146200010757600080fd5b50565b6000815190506200011b81620000f0565b92915050565b600080fd5b600080fd5b6000601f19601f8301169050919050565b7f4e487b7100000000000000000000000000000000000000000000000000000000600052604160045260246000fd5b62000176826200012b565b810181811067ffffffffffffffff821117156200019857620001976200013c565b5b80604052505050565b6000620001ad620000a8565b9050620001bb82826200016b565b919050565b600067ffffffffffffffff821115620001de57620001dd6200013c565b5b620001e9826200012b565b9050602081019050919050565b60005b8381101562000216578082015181840152602081019050620001f9565b60008484015250505050565b6000620002396200023384620001c0565b620001a1565b90508281526020810184848401111562000258576200025762000126565b5b62000265848285620001f6565b509392505050565b600082601f83011262000285576200028462000121565b5b81516200029784826020860162000222565b91505092915050565b600080600060608486031215620002bc57620002bb620000b2565b5b6000620002cc868287016200010a565b935050602084015167ffffffffffffffff811115620002f057620002ef620000b7565b5b620002fe868287016200026d565b925050604084015167ffffffffffffffff811115620003225762000321620000b7565b5b62000330868287016200026d565b9150509250925092565b600081519050919050565b7f4e487b7100000000000000000000000000000000000000000000000000000000600052602260045260246000fd5b600060028204905060018216806200038d57607f821691505b602082108103620003a357620003a262000345565b5b50919050565b60008190508160005260206000209050919050565b60006020601f8301049050919050565b600082821b905092915050565b6000600883026200040d7fffffffffffffffffffffffffffffffffffffffffffffffffffffffffffffffff82620003ce565b620004198683620003ce565b95508019841693508086168417925050509392505050565b6000819050919050565b6000819050919050565b600062000466620004606200045a8462000431565b6200043b565b62000431565b9050919050565b6000819050919050565b620004828362000445565b6200049a62000491826200046d565b848454620003db565b825550505050565b600090565b620004b1620004a2565b620004be81848462000477565b505050565b5b81811015620004e657620004da600082620004a7565b600181019050620004c4565b5050565b601f8211156200053557620004ff81620003a9565b6200050a84620003be565b810160208510156200051a578190505b620005326200052985620003be565b830182620004c3565b50505b505050565b600082821c905092915050565b60006200055a600019846008026200053a565b1980831691505092915050565b600062000575838362000547565b9150826002028217905092915050565b62000590826200033a565b67ffffffffffffffff811115620005ac57620005ab6200013c565b5b620005b8825462000374565b620005c5828285620004ea565b600060209050601f831160018114620005fd5760008415620005e8578287015190505b620005f4858262000567565b86555062000664565b601f1984166200060d86620003a9565b60005b82811015620006375784890151825560018201915060208501945060208101905062000610565b8683101562000657578489015162000653601f89168262000547565b8355505b6001600288020188555050505b505050505050565b611a62806200067c6000396000f3fe608060405234801561001057600080fd5b50600436106100575760003560e01c80633bc1f0201461005c5780635bf8633a1461007a57806368818da214610098578063868e10c4146100b6578063c3bd579b146100d2575b600080fd5b6100646100f0565b60405161007191906111f6565b60405180910390f35b61008261017e565b60405161008f9190611259565b60405180910390f35b6100a06101a2565b6040516100ad91906111f6565b60405180910390f35b6100d060048036038101906100cb9190611323565b610230565b005b6100da6102db565b6040516100e791906113a6565b60405180910390f35b600280546100fd906113f0565b80601f0160208091040260200160405190810160405280929190818152602001828054610129906113f0565b80156101765780601f1061014b57610100808354040283529160200191610176565b820191906000526020600020905b81548152906001019060200180831161015957829003601f168201915b505050505081565b60008054906101000a900473ffffffffffffffffffffffffffffffffffffffff1681565b600180546101af906113f0565b80601f01602080910402602001604051908101604052809291908181526020018280546101db906113f0565b80156102285780601f106101fd57610100808354040283529160200191610228565b820191906000526020600020905b81548152906001019060200180831161020b57829003601f168201915b505050505081565b639d8b067867ffffffffffffffff168367ffffffffffffffff161461028a576040517f08c379a000000000000000000000000000000000000000000000000000000000815260040161028190611493565b60405180910390fd5b36600061029784846102e3565b91509150366000366000366000806102af8989610499565b96509650965096509650965096506102cc8787878787878761098a565b50505050505050505050505050565b639d8b067881565b36600080600090507f8200000000000000000000000000000000000000000000000000000000000000858560008181106103205761031f6114b3565b5b9050013560f81c60f81b7effffffffffffffffffffffffffffffffffffffffffffffffffffffffffffff19161461035a576103596114e2565b5b600181610367919061154a565b90506000806103ba87878080601f016020809104026020016040519081016040528093929190818152602001838380828437600081840152601f19601f8201169050808301925050505050505084610bd9565b8167ffffffffffffffff169150809550819350829450505050600260ff168260ff16146103ea576103e96114e2565b5b80836103f6919061154a565b925061044687878080601f016020809104026020016040519081016040528093929190818152602001838380828437600081840152601f19601f8201169050808301925050505050505084610bd9565b8167ffffffffffffffff169150809550819350829450505050600260ff168260ff1614610476576104756114e2565b5b86868490898990509261048b93929190611588565b945094505050509250929050565b3660003660003660008060007f8b000000000000000000000000000000000000000000000000000000000000008a8a838181106104d9576104d86114b3565b5b9050013560f81c60f81b7effffffffffffffffffffffffffffffffffffffffffffffffffffffffffffff191614610513576105126114e2565b5b600181610520919061154a565b90507fd8000000000000000000000000000000000000000000000000000000000000008a8a83818110610556576105556114b3565b5b9050013560f81c60f81b7effffffffffffffffffffffffffffffffffffffffffffffffffffffffffffff1916146105905761058f6114e2565b5b60018161059d919061154a565b90507f2a000000000000000000000000000000000000000000000000000000000000008a8a838181106105d3576105d26114b3565b5b9050013560f81c60f81b7effffffffffffffffffffffffffffffffffffffffffffffffffffffffffffff19161461060d5761060c6114e2565b5b60018161061a919061154a565b905060008061066d8c8c8080601f016020809104026020016040519081016040528093929190818152602001838380828437600081840152601f19601f8201169050808301925050505050505084610bd9565b8167ffffffffffffffff169150809550819350829450505050600260ff168260ff161461069d5761069c6114e2565b5b8b8b849083866106ad919061154a565b926106ba93929190611588565b9950995080836106ca919061154a565b925061071a8c8c8080601f016020809104026020016040519081016040528093929190818152602001838380828437600081840152601f19601f8201169050808301925050505050505084610bd9565b8167ffffffffffffffff169150809550819650829450505050600060ff168260ff161461074a576107496114e2565b5b7ff4000000000000000000000000000000000000000000000000000000000000008c8c8581811061077e5761077d6114b3565b5b9050013560f81c60f81b7effffffffffffffffffffffffffffffffffffffffffffffffffffffffffffff1916148061081357507ff5000000000000000000000000000000000000000000000000000000000000008c8c858181106107e5576107e46114b3565b5b9050013560f81c60f81b7effffffffffffffffffffffffffffffffffffffffffffffffffffffffffffff1916145b6108205761081f6114e2565b5b60018361082d919061154a565b925061087d8c8c8080601f016020809104026020016040519081016040528093929190818152602001838380828437600081840152601f19601f8201169050808301925050505050505084610bd9565b8167ffffffffffffffff169150809550819350829450505050600260ff168260ff16146108ad576108ac6114e2565b5b8b8b849083866108bd919061154a565b926108ca93929190611588565b9750975080836108da919061154a565b925061092a8c8c8080601f016020809104026020016040519081016040528093929190818152602001838380828437600081840152601f19601f8201169050808301925050505050505084610bd9565b8167ffffffffffffffff169150809550819350829450505050600260ff168260ff161461095a576109596114e2565b5b8b8b8490838661096a919061154a565b9261097793929190611588565b9550955050505092959891949750929550565b61099987878787878787610d67565b60008060009054906101000a900473ffffffffffffffffffffffffffffffffffffffff1690508073ffffffffffffffffffffffffffffffffffffffff16630883a42e610a2888888080601f016020809104026020016040519081016040528093929190818152602001838380828437600081840152601f19601f82011690508083019250505050505050610fa7565b60016040518363ffffffff1660e01b8152600401610a479291906116bb565b602060405180830381865afa158015610a64573d6000803e3d6000fd5b505050506040513d601f19601f82011682018060405250810190610a889190611723565b610ac7576040517f08c379a0000000000000000000000000000000000000000000000000000000008152600401610abe906117c2565b60405180910390fd5b8073ffffffffffffffffffffffffffffffffffffffff16630883a42e610b3086868080601f016020809104026020016040519081016040528093929190818152602001838380828437600081840152601f19601f82011690508083019250505050505050610fa7565b60026040518363ffffffff1660e01b8152600401610b4f9291906116bb565b602060405180830381865afa158015610b6c573d6000803e3d6000fd5b505050506040513d601f19601f82011682018060405250810190610b909190611723565b610bcf576040517f08c379a0000000000000000000000000000000000000000000000000000000008152600401610bc690611854565b60405180910390fd5b5050505050505050565b600080600080610be98686610fca565b9050600185610bf8919061154a565b94506000600560e0831660ff16901c90506000601f83169050601c8160ff1610610c2557610c246114e2565b5b60188160ff161015610c48578181888160ff169150955095509550505050610d60565b60188160ff1603610c9d576000610c5f8989610fca565b9050600188610c6e919061154a565b975060188160ff161015610c8557610c846114e2565b5b8281898160ff16915096509650965050505050610d60565b60198160ff1603610cde576000610cb48989611031565b9050600288610cc3919061154a565b97508281898161ffff16915096509650965050505050610d60565b601a8160ff1603610d21576000610cf58989611098565b9050600488610d04919061154a565b97508281898163ffffffff16915096509650965050505050610d60565b601b8160ff1614610d3557610d346114e2565b5b6000610d4189896110ff565b9050600888610d50919061154a565b9750828189965096509650505050505b9250925092565b60008060009054906101000a900473ffffffffffffffffffffffffffffffffffffffff16905060008173ffffffffffffffffffffffffffffffffffffffff166370a08231610df889898080601f016020809104026020016040519081016040528093929190818152602001838380828437600081840152601f19601f82011690508083019250505050505050610fa7565b6040518263ffffffff1660e01b8152600401610e149190611874565b602060405180830381865afa158015610e31573d6000803e3d6000fd5b505050506040513d601f19601f82011682018060405250810190610e5591906118bb565b11610e95576040517f08c379a0000000000000000000000000000000000000000000000000000000008152600401610e8c90611934565b60405180910390fd5b60008173ffffffffffffffffffffffffffffffffffffffff166370a08231610f0087878080601f016020809104026020016040519081016040528093929190818152602001838380828437600081840152601f19601f82011690508083019250505050505050610fa7565b6040518263ffffffff1660e01b8152600401610f1c9190611874565b602060405180830381865afa158015610f39573d6000803e3d6000fd5b505050506040513d601f19601f82011682018060405250810190610f5d91906118bb565b11610f9d576040517f08c379a0000000000000000000000000000000000000000000000000000000008152600401610f94906119a0565b60405180910390fd5b5050505050505050565b60006014825114610fb757600080fd5b600c6101000a6020830151049050919050565b6000600182610fd9919061154a565b8351101561101c576040517f08c379a000000000000000000000000000000000000000000000000000000000815260040161101390611a0c565b60405180910390fd5b60008260010184015190508091505092915050565b6000600282611040919061154a565b83511015611083576040517f08c379a000000000000000000000000000000000000000000000000000000000815260040161107a90611a0c565b60405180910390fd5b60008260020184015190508091505092915050565b60006004826110a7919061154a565b835110156110ea576040517f08c379a00000000000000000000000000000000000000000000000000000000081526004016110e190611a0c565b60405180910390fd5b60008260040184015190508091505092915050565b600060088261110e919061154a565b83511015611151576040517f08c379a000000000000000000000000000000000000000000000000000000000815260040161114890611a0c565b60405180910390fd5b60008260080184015190508091505092915050565b600081519050919050565b600082825260208201905092915050565b60005b838110156111a0578082015181840152602081019050611185565b60008484015250505050565b6000601f19601f8301169050919050565b60006111c882611166565b6111d28185611171565b93506111e2818560208601611182565b6111eb816111ac565b840191505092915050565b6000602082019050818103600083015261121081846111bd565b905092915050565b600073ffffffffffffffffffffffffffffffffffffffff82169050919050565b600061124382611218565b9050919050565b61125381611238565b82525050565b600060208201905061126e600083018461124a565b92915050565b600080fd5b600080fd5b600067ffffffffffffffff82169050919050565b61129b8161127e565b81146112a657600080fd5b50565b6000813590506112b881611292565b92915050565b600080fd5b600080fd5b600080fd5b60008083601f8401126112e3576112e26112be565b5b8235905067ffffffffffffffff811115611300576112ff6112c3565b5b60208301915083600182028301111561131c5761131b6112c8565b5b9250929050565b6000806000806060858703121561133d5761133c611274565b5b600061134b878288016112a9565b945050602061135c878288016112a9565b935050604085013567ffffffffffffffff81111561137d5761137c611279565b5b611389878288016112cd565b925092505092959194509250565b6113a08161127e565b82525050565b60006020820190506113bb6000830184611397565b92915050565b7f4e487b7100000000000000000000000000000000000000000000000000000000600052602260045260246000fd5b6000600282049050600182168061140857607f821691505b60208210810361141b5761141a6113c1565b5b50919050565b7f7468652066696c65636f696e206d6574686f642074686174207761732063616c60008201527f6c6564206973206e6f742068616e646c65640000000000000000000000000000602082015250565b600061147d603283611171565b915061148882611421565b604082019050919050565b600060208201905081810360008301526114ac81611470565b9050919050565b7f4e487b7100000000000000000000000000000000000000000000000000000000600052603260045260246000fd5b7f4e487b7100000000000000000000000000000000000000000000000000000000600052600160045260246000fd5b6000819050919050565b7f4e487b7100000000000000000000000000000000000000000000000000000000600052601160045260246000fd5b600061155582611511565b915061156083611511565b92508282019050808211156115785761157761151b565b5b92915050565b600080fd5b600080fd5b6000808585111561159c5761159b61157e565b5b838611156115ad576115ac611583565b5b6001850283019150848603905094509492505050565b6000819050919050565b60006115e86115e36115de84611218565b6115c3565b611218565b9050919050565b60006115fa826115cd565b9050919050565b600061160c826115ef565b9050919050565b61161c81611601565b82525050565b60008190508160005260206000209050919050565b60008154611644816113f0565b61164e8186611171565b94506001821660008114611669576001811461167f576116b2565b60ff1983168652811515602002860193506116b2565b61168885611622565b60005b838110156116aa5781548189015260018201915060208101905061168b565b808801955050505b50505092915050565b60006040820190506116d06000830185611613565b81810360208301526116e28184611637565b90509392505050565b60008115159050919050565b611700816116eb565b811461170b57600080fd5b50565b60008151905061171d816116f7565b92915050565b60006020828403121561173957611738611274565b5b60006117478482850161170e565b91505092915050565b7f436c69656e7420646f6573206e6f74206f776e20746865207269676874204e4660008201527f5400000000000000000000000000000000000000000000000000000000000000602082015250565b60006117ac602183611171565b91506117b782611750565b604082019050919050565b600060208201905081810360008301526117db8161179f565b9050919050565b7f50726f766964657220646f6573206e6f74206f776e207468652072696768742060008201527f4e46540000000000000000000000000000000000000000000000000000000000602082015250565b600061183e602383611171565b9150611849826117e2565b604082019050919050565b6000602082019050818103600083015261186d81611831565b9050919050565b60006020820190506118896000830184611613565b92915050565b61189881611511565b81146118a357600080fd5b50565b6000815190506118b58161188f565b92915050565b6000602082840312156118d1576118d0611274565b5b60006118df848285016118a6565b91505092915050565b7f436c69656e74206973206d697373696e67207265717569726564204e46540000600082015250565b600061191e601e83611171565b9150611929826118e8565b602082019050919050565b6000602082019050818103600083015261194d81611911565b9050919050565b7f50726f7669646572206973206d697373696e67207265717569726564204e4654600082015250565b600061198a602083611171565b915061199582611954565b602082019050919050565b600060208201905081810360008301526119b98161197d565b9050919050565b7f736c6963696e67206f7574206f662072616e6765000000000000000000000000600082015250565b60006119f6601483611171565b9150611a01826119c0565b602082019050919050565b60006020820190508181036000830152611a25816119e9565b905091905056fea2646970667358221220b7b848102e78ab64903d070f72555ab97b0dd9d36c48bb2a7b24ba0dda65152e64736f6c63430008110033",
  "linkReferences": {},
  "deployedLinkReferences": {}
}