{
  "_format": "hh-sol-artifact-1",
  "contractName": "ClientNFTDealClient",
  "sourceName": "contracts/fil-deal-clients/ClientNFTDealClient.sol",
  "abi": [
    {
      "inputs": [
        {
          "internalType": "address",
          "name": "nftAddress",
          "type": "address"
        }
      ],
      "stateMutability": "nonpayable",
      "type": "constructor"
    },
    {
      "inputs": [],
      "name": "AUTHORIZE_MESSAGE_METHOD_NUM",
      "outputs": [
        {
          "internalType": "uint64",
          "name": "",
          "type": "uint64"
        }
      ],
      "stateMutability": "view",
      "type": "function"
    },
    {
      "inputs": [
        {
          "internalType": "uint64",
          "name": "",
          "type": "uint64"
        },
        {
          "internalType": "uint64",
          "name": "method",
          "type": "uint64"
        },
        {
          "internalType": "bytes",
          "name": "params",
          "type": "bytes"
        }
      ],
      "name": "handle_filecoin_method",
      "outputs": [],
      "stateMutability": "nonpayable",
      "type": "function"
    },
    {
      "inputs": [],
      "name": "nftAddress",
      "outputs": [
        {
          "internalType": "address",
          "name": "",
          "type": "address"
        }
      ],
      "stateMutability": "view",
      "type": "function"
    }
  ],
  "bytecode": "0x60806040523480156200001157600080fd5b506040516200130a3803806200130a8339818101604052810190620000379190620000ea565b80806000806101000a81548173ffffffffffffffffffffffffffffffffffffffff021916908373ffffffffffffffffffffffffffffffffffffffff16021790555050506200011c565b600080fd5b600073ffffffffffffffffffffffffffffffffffffffff82169050919050565b6000620000b28262000085565b9050919050565b620000c481620000a5565b8114620000d057600080fd5b50565b600081519050620000e481620000b9565b92915050565b60006020828403121562000103576200010262000080565b5b60006200011384828501620000d3565b91505092915050565b6111de806200012c6000396000f3fe608060405234801561001057600080fd5b50600436106100415760003560e01c80635bf8633a14610046578063868e10c414610064578063c3bd579b14610080575b600080fd5b61004e61009e565b60405161005b9190610ce2565b60405180910390f35b61007e60048036038101906100799190610dac565b6100c2565b005b61008861016d565b6040516100959190610e2f565b60405180910390f35b60008054906101000a900473ffffffffffffffffffffffffffffffffffffffff1681565b639d8b067867ffffffffffffffff168367ffffffffffffffff161461011c576040517f08c379a000000000000000000000000000000000000000000000000000000000815260040161011390610ecd565b60405180910390fd5b3660006101298484610175565b9150915036600036600036600080610141898961032b565b965096509650965096509650965061015e8787878787878761081c565b50505050505050505050505050565b639d8b067881565b36600080600090507f8200000000000000000000000000000000000000000000000000000000000000858560008181106101b2576101b1610eed565b5b9050013560f81c60f81b7effffffffffffffffffffffffffffffffffffffffffffffffffffffffffffff1916146101ec576101eb610f1c565b5b6001816101f99190610f84565b905060008061024c87878080601f016020809104026020016040519081016040528093929190818152602001838380828437600081840152601f19601f8201169050808301925050505050505084610954565b8167ffffffffffffffff169150809550819350829450505050600260ff168260ff161461027c5761027b610f1c565b5b80836102889190610f84565b92506102d887878080601f016020809104026020016040519081016040528093929190818152602001838380828437600081840152601f19601f8201169050808301925050505050505084610954565b8167ffffffffffffffff169150809550819350829450505050600260ff168260ff161461030857610307610f1c565b5b86868490898990509261031d93929190610fc2565b945094505050509250929050565b3660003660003660008060007f8b000000000000000000000000000000000000000000000000000000000000008a8a8381811061036b5761036a610eed565b5b9050013560f81c60f81b7effffffffffffffffffffffffffffffffffffffffffffffffffffffffffffff1916146103a5576103a4610f1c565b5b6001816103b29190610f84565b90507fd8000000000000000000000000000000000000000000000000000000000000008a8a838181106103e8576103e7610eed565b5b9050013560f81c60f81b7effffffffffffffffffffffffffffffffffffffffffffffffffffffffffffff19161461042257610421610f1c565b5b60018161042f9190610f84565b90507f2a000000000000000000000000000000000000000000000000000000000000008a8a8381811061046557610464610eed565b5b9050013560f81c60f81b7effffffffffffffffffffffffffffffffffffffffffffffffffffffffffffff19161461049f5761049e610f1c565b5b6001816104ac9190610f84565b90506000806104ff8c8c8080601f016020809104026020016040519081016040528093929190818152602001838380828437600081840152601f19601f8201169050808301925050505050505084610954565b8167ffffffffffffffff169150809550819350829450505050600260ff168260ff161461052f5761052e610f1c565b5b8b8b8490838661053f9190610f84565b9261054c93929190610fc2565b99509950808361055c9190610f84565b92506105ac8c8c8080601f016020809104026020016040519081016040528093929190818152602001838380828437600081840152601f19601f8201169050808301925050505050505084610954565b8167ffffffffffffffff169150809550819650829450505050600060ff168260ff16146105dc576105db610f1c565b5b7ff4000000000000000000000000000000000000000000000000000000000000008c8c858181106106105761060f610eed565b5b9050013560f81c60f81b7effffffffffffffffffffffffffffffffffffffffffffffffffffffffffffff191614806106a557507ff5000000000000000000000000000000000000000000000000000000000000008c8c8581811061067757610676610eed565b5b9050013560f81c60f81b7effffffffffffffffffffffffffffffffffffffffffffffffffffffffffffff1916145b6106b2576106b1610f1c565b5b6001836106bf9190610f84565b925061070f8c8c8080601f016020809104026020016040519081016040528093929190818152602001838380828437600081840152601f19601f8201169050808301925050505050505084610954565b8167ffffffffffffffff169150809550819350829450505050600260ff168260ff161461073f5761073e610f1c565b5b8b8b8490838661074f9190610f84565b9261075c93929190610fc2565b97509750808361076c9190610f84565b92506107bc8c8c8080601f016020809104026020016040519081016040528093929190818152602001838380828437600081840152601f19601f8201169050808301925050505050505084610954565b8167ffffffffffffffff169150809550819350829450505050600260ff168260ff16146107ec576107eb610f1c565b5b8b8b849083866107fc9190610f84565b9261080993929190610fc2565b9550955050505092959891949750929550565b60008060009054906101000a900473ffffffffffffffffffffffffffffffffffffffff16905060008173ffffffffffffffffffffffffffffffffffffffff166370a082316108ad89898080601f016020809104026020016040519081016040528093929190818152602001838380828437600081840152601f19601f82011690508083019250505050505050610ae2565b6040518263ffffffff1660e01b81526004016108c9919061105c565b602060405180830381865afa1580156108e6573d6000803e3d6000fd5b505050506040513d601f19601f8201168201806040525081019061090a91906110a3565b1161094a576040517f08c379a00000000000000000000000000000000000000000000000000000000081526004016109419061111c565b60405180910390fd5b5050505050505050565b6000806000806109648686610b05565b90506001856109739190610f84565b94506000600560e0831660ff16901c90506000601f83169050601c8160ff16106109a05761099f610f1c565b5b60188160ff1610156109c3578181888160ff169150955095509550505050610adb565b60188160ff1603610a185760006109da8989610b05565b90506001886109e99190610f84565b975060188160ff161015610a00576109ff610f1c565b5b8281898160ff16915096509650965050505050610adb565b60198160ff1603610a59576000610a2f8989610b6c565b9050600288610a3e9190610f84565b97508281898161ffff16915096509650965050505050610adb565b601a8160ff1603610a9c576000610a708989610bd3565b9050600488610a7f9190610f84565b97508281898163ffffffff16915096509650965050505050610adb565b601b8160ff1614610ab057610aaf610f1c565b5b6000610abc8989610c3a565b9050600888610acb9190610f84565b9750828189965096509650505050505b9250925092565b60006014825114610af257600080fd5b600c6101000a6020830151049050919050565b6000600182610b149190610f84565b83511015610b57576040517f08c379a0000000000000000000000000000000000000000000000000000000008152600401610b4e90611188565b60405180910390fd5b60008260010184015190508091505092915050565b6000600282610b7b9190610f84565b83511015610bbe576040517f08c379a0000000000000000000000000000000000000000000000000000000008152600401610bb590611188565b60405180910390fd5b60008260020184015190508091505092915050565b6000600482610be29190610f84565b83511015610c25576040517f08c379a0000000000000000000000000000000000000000000000000000000008152600401610c1c90611188565b60405180910390fd5b60008260040184015190508091505092915050565b6000600882610c499190610f84565b83511015610c8c576040517f08c379a0000000000000000000000000000000000000000000000000000000008152600401610c8390611188565b60405180910390fd5b60008260080184015190508091505092915050565b600073ffffffffffffffffffffffffffffffffffffffff82169050919050565b6000610ccc82610ca1565b9050919050565b610cdc81610cc1565b82525050565b6000602082019050610cf76000830184610cd3565b92915050565b600080fd5b600080fd5b600067ffffffffffffffff82169050919050565b610d2481610d07565b8114610d2f57600080fd5b50565b600081359050610d4181610d1b565b92915050565b600080fd5b600080fd5b600080fd5b60008083601f840112610d6c57610d6b610d47565b5b8235905067ffffffffffffffff811115610d8957610d88610d4c565b5b602083019150836001820283011115610da557610da4610d51565b5b9250929050565b60008060008060608587031215610dc657610dc5610cfd565b5b6000610dd487828801610d32565b9450506020610de587828801610d32565b935050604085013567ffffffffffffffff811115610e0657610e05610d02565b5b610e1287828801610d56565b925092505092959194509250565b610e2981610d07565b82525050565b6000602082019050610e446000830184610e20565b92915050565b600082825260208201905092915050565b7f7468652066696c65636f696e206d6574686f642074686174207761732063616c60008201527f6c6564206973206e6f742068616e646c65640000000000000000000000000000602082015250565b6000610eb7603283610e4a565b9150610ec282610e5b565b604082019050919050565b60006020820190508181036000830152610ee681610eaa565b9050919050565b7f4e487b7100000000000000000000000000000000000000000000000000000000600052603260045260246000fd5b7f4e487b7100000000000000000000000000000000000000000000000000000000600052600160045260246000fd5b6000819050919050565b7f4e487b7100000000000000000000000000000000000000000000000000000000600052601160045260246000fd5b6000610f8f82610f4b565b9150610f9a83610f4b565b9250828201905080821115610fb257610fb1610f55565b5b92915050565b600080fd5b600080fd5b60008085851115610fd657610fd5610fb8565b5b83861115610fe757610fe6610fbd565b5b6001850283019150848603905094509492505050565b6000819050919050565b600061102261101d61101884610ca1565b610ffd565b610ca1565b9050919050565b600061103482611007565b9050919050565b600061104682611029565b9050919050565b6110568161103b565b82525050565b6000602082019050611071600083018461104d565b92915050565b61108081610f4b565b811461108b57600080fd5b50565b60008151905061109d81611077565b92915050565b6000602082840312156110b9576110b8610cfd565b5b60006110c78482850161108e565b91505092915050565b7f436c69656e74206973206d697373696e67207265717569726564204e46540000600082015250565b6000611106601e83610e4a565b9150611111826110d0565b602082019050919050565b60006020820190508181036000830152611135816110f9565b9050919050565b7f736c6963696e67206f7574206f662072616e6765000000000000000000000000600082015250565b6000611172601483610e4a565b915061117d8261113c565b602082019050919050565b600060208201905081810360008301526111a181611165565b905091905056fea26469706673582212207a627b1ce0448d72fa85dde672a9136d7ae1396d362e33c8c9ffe20c2fa5584c64736f6c63430008110033",
  "linkReferences": {},
  "deployedLinkReferences": {}
}