{
  "_format": "hh-sol-artifact-1",
  "contractName": "CommonNFTDealClient",
  "sourceName": "contracts/fil-deal-clients/CommonNFTDealClient.sol",
  "abi": [
    {
      "inputs": [
        {
          "internalType": "address",
          "name": "nftAddress",
          "type": "address"
        }
      ],
      "stateMutability": "nonpayable",
      "type": "constructor"
    },
    {
      "inputs": [],
      "name": "AUTHORIZE_MESSAGE_METHOD_NUM",
      "outputs": [
        {
          "internalType": "uint64",
          "name": "",
          "type": "uint64"
        }
      ],
      "stateMutability": "view",
      "type": "function"
    },
    {
      "inputs": [
        {
          "internalType": "uint64",
          "name": "",
          "type": "uint64"
        },
        {
          "internalType": "uint64",
          "name": "method",
          "type": "uint64"
        },
        {
          "internalType": "bytes",
          "name": "params",
          "type": "bytes"
        }
      ],
      "name": "handle_filecoin_method",
      "outputs": [],
      "stateMutability": "nonpayable",
      "type": "function"
    },
    {
      "inputs": [],
      "name": "nftAddress",
      "outputs": [
        {
          "internalType": "address",
          "name": "",
          "type": "address"
        }
      ],
      "stateMutability": "view",
      "type": "function"
    }
  ],
  "bytecode": "0x60806040523480156200001157600080fd5b506040516200147e3803806200147e8339818101604052810190620000379190620000ea565b80806000806101000a81548173ffffffffffffffffffffffffffffffffffffffff021916908373ffffffffffffffffffffffffffffffffffffffff16021790555050506200011c565b600080fd5b600073ffffffffffffffffffffffffffffffffffffffff82169050919050565b6000620000b28262000085565b9050919050565b620000c481620000a5565b8114620000d057600080fd5b50565b600081519050620000e481620000b9565b92915050565b60006020828403121562000103576200010262000080565b5b60006200011384828501620000d3565b91505092915050565b611352806200012c6000396000f3fe608060405234801561001057600080fd5b50600436106100415760003560e01c80635bf8633a14610046578063868e10c414610064578063c3bd579b14610080575b600080fd5b61004e61009e565b60405161005b9190610dea565b60405180910390f35b61007e60048036038101906100799190610eb4565b6100c2565b005b61008861016d565b6040516100959190610f37565b60405180910390f35b60008054906101000a900473ffffffffffffffffffffffffffffffffffffffff1681565b639d8b067867ffffffffffffffff168367ffffffffffffffff161461011c576040517f08c379a000000000000000000000000000000000000000000000000000000000815260040161011390610fd5565b60405180910390fd5b3660006101298484610175565b9150915036600036600036600080610141898961032b565b965096509650965096509650965061015e8787878787878761081c565b50505050505050505050505050565b639d8b067881565b36600080600090507f8200000000000000000000000000000000000000000000000000000000000000858560008181106101b2576101b1610ff5565b5b9050013560f81c60f81b7effffffffffffffffffffffffffffffffffffffffffffffffffffffffffffff1916146101ec576101eb611024565b5b6001816101f9919061108c565b905060008061024c87878080601f016020809104026020016040519081016040528093929190818152602001838380828437600081840152601f19601f8201169050808301925050505050505084610a5c565b8167ffffffffffffffff169150809550819350829450505050600260ff168260ff161461027c5761027b611024565b5b8083610288919061108c565b92506102d887878080601f016020809104026020016040519081016040528093929190818152602001838380828437600081840152601f19601f8201169050808301925050505050505084610a5c565b8167ffffffffffffffff169150809550819350829450505050600260ff168260ff161461030857610307611024565b5b86868490898990509261031d939291906110ca565b945094505050509250929050565b3660003660003660008060007f8b000000000000000000000000000000000000000000000000000000000000008a8a8381811061036b5761036a610ff5565b5b9050013560f81c60f81b7effffffffffffffffffffffffffffffffffffffffffffffffffffffffffffff1916146103a5576103a4611024565b5b6001816103b2919061108c565b90507fd8000000000000000000000000000000000000000000000000000000000000008a8a838181106103e8576103e7610ff5565b5b9050013560f81c60f81b7effffffffffffffffffffffffffffffffffffffffffffffffffffffffffffff19161461042257610421611024565b5b60018161042f919061108c565b90507f2a000000000000000000000000000000000000000000000000000000000000008a8a8381811061046557610464610ff5565b5b9050013560f81c60f81b7effffffffffffffffffffffffffffffffffffffffffffffffffffffffffffff19161461049f5761049e611024565b5b6001816104ac919061108c565b90506000806104ff8c8c8080601f016020809104026020016040519081016040528093929190818152602001838380828437600081840152601f19601f8201169050808301925050505050505084610a5c565b8167ffffffffffffffff169150809550819350829450505050600260ff168260ff161461052f5761052e611024565b5b8b8b8490838661053f919061108c565b9261054c939291906110ca565b99509950808361055c919061108c565b92506105ac8c8c8080601f016020809104026020016040519081016040528093929190818152602001838380828437600081840152601f19601f8201169050808301925050505050505084610a5c565b8167ffffffffffffffff169150809550819650829450505050600060ff168260ff16146105dc576105db611024565b5b7ff4000000000000000000000000000000000000000000000000000000000000008c8c858181106106105761060f610ff5565b5b9050013560f81c60f81b7effffffffffffffffffffffffffffffffffffffffffffffffffffffffffffff191614806106a557507ff5000000000000000000000000000000000000000000000000000000000000008c8c8581811061067757610676610ff5565b5b9050013560f81c60f81b7effffffffffffffffffffffffffffffffffffffffffffffffffffffffffffff1916145b6106b2576106b1611024565b5b6001836106bf919061108c565b925061070f8c8c8080601f016020809104026020016040519081016040528093929190818152602001838380828437600081840152601f19601f8201169050808301925050505050505084610a5c565b8167ffffffffffffffff169150809550819350829450505050600260ff168260ff161461073f5761073e611024565b5b8b8b8490838661074f919061108c565b9261075c939291906110ca565b97509750808361076c919061108c565b92506107bc8c8c8080601f016020809104026020016040519081016040528093929190818152602001838380828437600081840152601f19601f8201169050808301925050505050505084610a5c565b8167ffffffffffffffff169150809550819350829450505050600260ff168260ff16146107ec576107eb611024565b5b8b8b849083866107fc919061108c565b92610809939291906110ca565b9550955050505092959891949750929550565b60008060009054906101000a900473ffffffffffffffffffffffffffffffffffffffff16905060008173ffffffffffffffffffffffffffffffffffffffff166370a082316108ad89898080601f016020809104026020016040519081016040528093929190818152602001838380828437600081840152601f19601f82011690508083019250505050505050610bea565b6040518263ffffffff1660e01b81526004016108c99190611164565b602060405180830381865afa1580156108e6573d6000803e3d6000fd5b505050506040513d601f19601f8201168201806040525081019061090a91906111ab565b1161094a576040517f08c379a000000000000000000000000000000000000000000000000000000000815260040161094190611224565b60405180910390fd5b60008173ffffffffffffffffffffffffffffffffffffffff166370a082316109b587878080601f016020809104026020016040519081016040528093929190818152602001838380828437600081840152601f19601f82011690508083019250505050505050610bea565b6040518263ffffffff1660e01b81526004016109d19190611164565b602060405180830381865afa1580156109ee573d6000803e3d6000fd5b505050506040513d601f19601f82011682018060405250810190610a1291906111ab565b11610a52576040517f08c379a0000000000000000000000000000000000000000000000000000000008152600401610a4990611290565b60405180910390fd5b5050505050505050565b600080600080610a6c8686610c0d565b9050600185610a7b919061108c565b94506000600560e0831660ff16901c90506000601f83169050601c8160ff1610610aa857610aa7611024565b5b60188160ff161015610acb578181888160ff169150955095509550505050610be3565b60188160ff1603610b20576000610ae28989610c0d565b9050600188610af1919061108c565b975060188160ff161015610b0857610b07611024565b5b8281898160ff16915096509650965050505050610be3565b60198160ff1603610b61576000610b378989610c74565b9050600288610b46919061108c565b97508281898161ffff16915096509650965050505050610be3565b601a8160ff1603610ba4576000610b788989610cdb565b9050600488610b87919061108c565b97508281898163ffffffff16915096509650965050505050610be3565b601b8160ff1614610bb857610bb7611024565b5b6000610bc48989610d42565b9050600888610bd3919061108c565b9750828189965096509650505050505b9250925092565b60006014825114610bfa57600080fd5b600c6101000a6020830151049050919050565b6000600182610c1c919061108c565b83511015610c5f576040517f08c379a0000000000000000000000000000000000000000000000000000000008152600401610c56906112fc565b60405180910390fd5b60008260010184015190508091505092915050565b6000600282610c83919061108c565b83511015610cc6576040517f08c379a0000000000000000000000000000000000000000000000000000000008152600401610cbd906112fc565b60405180910390fd5b60008260020184015190508091505092915050565b6000600482610cea919061108c565b83511015610d2d576040517f08c379a0000000000000000000000000000000000000000000000000000000008152600401610d24906112fc565b60405180910390fd5b60008260040184015190508091505092915050565b6000600882610d51919061108c565b83511015610d94576040517f08c379a0000000000000000000000000000000000000000000000000000000008152600401610d8b906112fc565b60405180910390fd5b60008260080184015190508091505092915050565b600073ffffffffffffffffffffffffffffffffffffffff82169050919050565b6000610dd482610da9565b9050919050565b610de481610dc9565b82525050565b6000602082019050610dff6000830184610ddb565b92915050565b600080fd5b600080fd5b600067ffffffffffffffff82169050919050565b610e2c81610e0f565b8114610e3757600080fd5b50565b600081359050610e4981610e23565b92915050565b600080fd5b600080fd5b600080fd5b60008083601f840112610e7457610e73610e4f565b5b8235905067ffffffffffffffff811115610e9157610e90610e54565b5b602083019150836001820283011115610ead57610eac610e59565b5b9250929050565b60008060008060608587031215610ece57610ecd610e05565b5b6000610edc87828801610e3a565b9450506020610eed87828801610e3a565b935050604085013567ffffffffffffffff811115610f0e57610f0d610e0a565b5b610f1a87828801610e5e565b925092505092959194509250565b610f3181610e0f565b82525050565b6000602082019050610f4c6000830184610f28565b92915050565b600082825260208201905092915050565b7f7468652066696c65636f696e206d6574686f642074686174207761732063616c60008201527f6c6564206973206e6f742068616e646c65640000000000000000000000000000602082015250565b6000610fbf603283610f52565b9150610fca82610f63565b604082019050919050565b60006020820190508181036000830152610fee81610fb2565b9050919050565b7f4e487b7100000000000000000000000000000000000000000000000000000000600052603260045260246000fd5b7f4e487b7100000000000000000000000000000000000000000000000000000000600052600160045260246000fd5b6000819050919050565b7f4e487b7100000000000000000000000000000000000000000000000000000000600052601160045260246000fd5b600061109782611053565b91506110a283611053565b92508282019050808211156110ba576110b961105d565b5b92915050565b600080fd5b600080fd5b600080858511156110de576110dd6110c0565b5b838611156110ef576110ee6110c5565b5b6001850283019150848603905094509492505050565b6000819050919050565b600061112a61112561112084610da9565b611105565b610da9565b9050919050565b600061113c8261110f565b9050919050565b600061114e82611131565b9050919050565b61115e81611143565b82525050565b60006020820190506111796000830184611155565b92915050565b61118881611053565b811461119357600080fd5b50565b6000815190506111a58161117f565b92915050565b6000602082840312156111c1576111c0610e05565b5b60006111cf84828501611196565b91505092915050565b7f436c69656e74206973206d697373696e67207265717569726564204e46540000600082015250565b600061120e601e83610f52565b9150611219826111d8565b602082019050919050565b6000602082019050818103600083015261123d81611201565b9050919050565b7f50726f7669646572206973206d697373696e67207265717569726564204e4654600082015250565b600061127a602083610f52565b915061128582611244565b602082019050919050565b600060208201905081810360008301526112a98161126d565b9050919050565b7f736c6963696e67206f7574206f662072616e6765000000000000000000000000600082015250565b60006112e6601483610f52565b91506112f1826112b0565b602082019050919050565b60006020820190508181036000830152611315816112d9565b905091905056fea26469706673582212200148064a2ef24b8e53bfa4984e1595e5005fe3c3096c21852c0b6963fa26e15464736f6c63430008110033",
  "linkReferences": {},
  "deployedLinkReferences": {}
}